{
  "_format": "hh-sol-artifact-1",
  "contractName": "SendMoneyExample",
  "sourceName": "contracts/FairPlay.sol",
  "abi": [
    {
      "inputs": [],
      "name": "balanceReceived",
      "outputs": [
        {
          "internalType": "uint256",
          "name": "",
          "type": "uint256"
        }
      ],
      "stateMutability": "view",
      "type": "function"
    },
    {
      "inputs": [],
      "name": "getBalance",
      "outputs": [
        {
          "internalType": "uint256",
          "name": "",
          "type": "uint256"
        }
      ],
      "stateMutability": "view",
      "type": "function"
    },
    {
      "inputs": [
        {
          "internalType": "address",
          "name": "workerAdress",
          "type": "address"
        }
      ],
      "name": "initialPayment",
      "outputs": [],
      "stateMutability": "payable",
      "type": "function"
    },
    {
      "inputs": [],
      "name": "receiveMoney",
      "outputs": [],
      "stateMutability": "payable",
      "type": "function"
    },
    {
      "inputs": [],
      "name": "withdrawMoney",
      "outputs": [],
      "stateMutability": "nonpayable",
      "type": "function"
    },
    {
      "inputs": [],
      "name": "withdrawRemainingBalance",
      "outputs": [],
      "stateMutability": "payable",
      "type": "function"
    }
  ],
  "bytecode": "0x608060405234801561001057600080fd5b50610455806100206000396000f3fe6080604052600436106100555760003560e01c806312065fe01461005a57806352a90c42146100855780636d26ec18146100b05780638f3de613146100ba578063ac446002146100d6578063b91d53c6146100ed575b600080fd5b34801561006657600080fd5b5061006f6100f7565b60405161007c9190610272565b60405180910390f35b34801561009157600080fd5b5061009a6100ff565b6040516100a79190610272565b60405180910390f35b6100b8610105565b005b6100d460048036038101906100cf919061023a565b61011f565b005b3480156100e257600080fd5b506100eb610187565b005b6100f56101d6565b005b600047905090565b60005481565b34600080828254610116919061028d565b92505081905550565b600060646014476101309190610314565b61013a91906102e3565b90508173ffffffffffffffffffffffffffffffffffffffff166108fc829081150290604051600060405180830381858888f19350505050158015610182573d6000803e3d6000fd5b505050565b60003390508073ffffffffffffffffffffffffffffffffffffffff166108fc479081150290604051600060405180830381858888f193505050501580156101d2573d6000803e3d6000fd5b5050565b60004790503373ffffffffffffffffffffffffffffffffffffffff166108fc829081150290604051600060405180830381858888f19350505050158015610221573d6000803e3d6000fd5b5050565b60008135905061023481610408565b92915050565b60006020828403121561024c57600080fd5b600061025a84828501610225565b91505092915050565b61026c816103a0565b82525050565b60006020820190506102876000830184610263565b92915050565b6000610298826103a0565b91506102a3836103a0565b9250827fffffffffffffffffffffffffffffffffffffffffffffffffffffffffffffffff038211156102d8576102d76103aa565b5b828201905092915050565b60006102ee826103a0565b91506102f9836103a0565b925082610309576103086103d9565b5b828204905092915050565b600061031f826103a0565b915061032a836103a0565b9250817fffffffffffffffffffffffffffffffffffffffffffffffffffffffffffffffff0483118215151615610363576103626103aa565b5b828202905092915050565b600061037982610380565b9050919050565b600073ffffffffffffffffffffffffffffffffffffffff82169050919050565b6000819050919050565b7f4e487b7100000000000000000000000000000000000000000000000000000000600052601160045260246000fd5b7f4e487b7100000000000000000000000000000000000000000000000000000000600052601260045260246000fd5b6104118161036e565b811461041c57600080fd5b5056fea26469706673582212208ce1edb172f30f697a69cc77520deb6eefe2b9ccbcec074da330fd5bac3da9f264736f6c63430008010033",
  "linkReferences": {},
  "deployedLinkReferences": {}
}